{
  "_format": "hh-sol-artifact-1",
  "contractName": "TokenRecover",
  "sourceName": "contracts/token/BEP20/utils/TokenRecover.sol",
  "abi": [
    {
      "anonymous": false,
      "inputs": [
        {
          "indexed": true,
          "internalType": "address",
          "name": "previousOwner",
          "type": "address"
        },
        {
          "indexed": true,
          "internalType": "address",
          "name": "newOwner",
          "type": "address"
        }
      ],
      "name": "OwnershipTransferred",
      "type": "event"
    },
    {
      "inputs": [],
      "name": "owner",
      "outputs": [
        {
          "internalType": "address",
          "name": "",
          "type": "address"
        }
      ],
      "stateMutability": "view",
      "type": "function"
    },
    {
      "inputs": [
        {
          "internalType": "address",
          "name": "tokenAddress",
          "type": "address"
        },
        {
          "internalType": "uint256",
          "name": "tokenAmount",
          "type": "uint256"
        }
      ],
      "name": "recoverBEP20",
      "outputs": [],
      "stateMutability": "nonpayable",
      "type": "function"
    },
    {
      "inputs": [],
      "name": "renounceOwnership",
      "outputs": [],
      "stateMutability": "nonpayable",
      "type": "function"
    },
    {
      "inputs": [
        {
          "internalType": "address",
          "name": "newOwner",
          "type": "address"
        }
      ],
      "name": "transferOwnership",
      "outputs": [],
      "stateMutability": "nonpayable",
      "type": "function"
    }
  ],
  "bytecode": "0x608060405234801561001057600080fd5b5061002d61002261003260201b60201c565b61003a60201b60201c565b6100fe565b600033905090565b60008060009054906101000a900473ffffffffffffffffffffffffffffffffffffffff169050816000806101000a81548173ffffffffffffffffffffffffffffffffffffffff021916908373ffffffffffffffffffffffffffffffffffffffff1602179055508173ffffffffffffffffffffffffffffffffffffffff168173ffffffffffffffffffffffffffffffffffffffff167f8be0079c531659141344cd1fd0a4f28419497f9722a3daafe3b4186f6b6457e060405160405180910390a35050565b61074d8061010d6000396000f3fe608060405234801561001057600080fd5b506004361061004c5760003560e01c8063715018a6146100515780638da5cb5b1461005b578063efa0880614610079578063f2fde38b14610095575b600080fd5b6100596100b1565b005b610063610139565b6040516100709190610578565b60405180910390f35b610093600480360381019061008e91906104a7565b610162565b005b6100af60048036038101906100aa919061047a565b610277565b005b6100b961036f565b73ffffffffffffffffffffffffffffffffffffffff166100d7610139565b73ffffffffffffffffffffffffffffffffffffffff161461012d576040517f08c379a0000000000000000000000000000000000000000000000000000000008152600401610124906105dc565b60405180910390fd5b6101376000610377565b565b60008060009054906101000a900473ffffffffffffffffffffffffffffffffffffffff16905090565b61016a61036f565b73ffffffffffffffffffffffffffffffffffffffff16610188610139565b73ffffffffffffffffffffffffffffffffffffffff16146101de576040517f08c379a00000000000000000000000000000000000000000000000000000000081526004016101d5906105dc565b60405180910390fd5b8173ffffffffffffffffffffffffffffffffffffffff1663a9059cbb610202610139565b836040518363ffffffff1660e01b8152600401610220929190610593565b602060405180830381600087803b15801561023a57600080fd5b505af115801561024e573d6000803e3d6000fd5b505050506040513d601f19601f8201168201806040525081019061027291906104e7565b505050565b61027f61036f565b73ffffffffffffffffffffffffffffffffffffffff1661029d610139565b73ffffffffffffffffffffffffffffffffffffffff16146102f3576040517f08c379a00000000000000000000000000000000000000000000000000000000081526004016102ea906105dc565b60405180910390fd5b600073ffffffffffffffffffffffffffffffffffffffff168173ffffffffffffffffffffffffffffffffffffffff161415610363576040517f08c379a000000000000000000000000000000000000000000000000000000000815260040161035a906105bc565b60405180910390fd5b61036c81610377565b50565b600033905090565b60008060009054906101000a900473ffffffffffffffffffffffffffffffffffffffff169050816000806101000a81548173ffffffffffffffffffffffffffffffffffffffff021916908373ffffffffffffffffffffffffffffffffffffffff1602179055508173ffffffffffffffffffffffffffffffffffffffff168173ffffffffffffffffffffffffffffffffffffffff167f8be0079c531659141344cd1fd0a4f28419497f9722a3daafe3b4186f6b6457e060405160405180910390a35050565b60008135905061044a816106d2565b92915050565b60008151905061045f816106e9565b92915050565b60008135905061047481610700565b92915050565b6000602082840312156104905761048f610655565b5b600061049e8482850161043b565b91505092915050565b600080604083850312156104be576104bd610655565b5b60006104cc8582860161043b565b92505060206104dd85828601610465565b9150509250929050565b6000602082840312156104fd576104fc610655565b5b600061050b84828501610450565b91505092915050565b61051d8161060d565b82525050565b60006105306026836105fc565b915061053b8261065a565b604082019050919050565b60006105536020836105fc565b915061055e826106a9565b602082019050919050565b6105728161064b565b82525050565b600060208201905061058d6000830184610514565b92915050565b60006040820190506105a86000830185610514565b6105b56020830184610569565b9392505050565b600060208201905081810360008301526105d581610523565b9050919050565b600060208201905081810360008301526105f581610546565b9050919050565b600082825260208201905092915050565b60006106188261062b565b9050919050565b60008115159050919050565b600073ffffffffffffffffffffffffffffffffffffffff82169050919050565b6000819050919050565b600080fd5b7f4f776e61626c653a206e6577206f776e657220697320746865207a65726f206160008201527f6464726573730000000000000000000000000000000000000000000000000000602082015250565b7f4f776e61626c653a2063616c6c6572206973206e6f7420746865206f776e6572600082015250565b6106db8161060d565b81146106e657600080fd5b50565b6106f28161061f565b81146106fd57600080fd5b50565b6107098161064b565b811461071457600080fd5b5056fea26469706673582212207b8928791b9a7db706a50a29a229177cc4d470c6274eaca47205a28b2b8a9a4364736f6c63430008060033",
  "linkReferences": {},
  "deployedLinkReferences": {}
}