{
  "_format": "hh-sol-artifact-1",
  "contractName": "BEP20",
  "sourceName": "contracts/token/BEP20/lib/BEP20.sol",
  "abi": [
    {
      "inputs": [
        {
          "internalType": "string",
          "name": "name_",
          "type": "string"
        },
        {
          "internalType": "string",
          "name": "symbol_",
          "type": "string"
        }
      ],
      "stateMutability": "nonpayable",
      "type": "constructor"
    },
    {
      "anonymous": false,
      "inputs": [
        {
          "indexed": true,
          "internalType": "address",
          "name": "owner",
          "type": "address"
        },
        {
          "indexed": true,
          "internalType": "address",
          "name": "spender",
          "type": "address"
        },
        {
          "indexed": false,
          "internalType": "uint256",
          "name": "value",
          "type": "uint256"
        }
      ],
      "name": "Approval",
      "type": "event"
    },
    {
      "anonymous": false,
      "inputs": [
        {
          "indexed": true,
          "internalType": "address",
          "name": "previousOwner",
          "type": "address"
        },
        {
          "indexed": true,
          "internalType": "address",
          "name": "newOwner",
          "type": "address"
        }
      ],
      "name": "OwnershipTransferred",
      "type": "event"
    },
    {
      "anonymous": false,
      "inputs": [
        {
          "indexed": true,
          "internalType": "address",
          "name": "from",
          "type": "address"
        },
        {
          "indexed": true,
          "internalType": "address",
          "name": "to",
          "type": "address"
        },
        {
          "indexed": false,
          "internalType": "uint256",
          "name": "value",
          "type": "uint256"
        }
      ],
      "name": "Transfer",
      "type": "event"
    },
    {
      "inputs": [
        {
          "internalType": "address",
          "name": "owner",
          "type": "address"
        },
        {
          "internalType": "address",
          "name": "spender",
          "type": "address"
        }
      ],
      "name": "allowance",
      "outputs": [
        {
          "internalType": "uint256",
          "name": "",
          "type": "uint256"
        }
      ],
      "stateMutability": "view",
      "type": "function"
    },
    {
      "inputs": [
        {
          "internalType": "address",
          "name": "spender",
          "type": "address"
        },
        {
          "internalType": "uint256",
          "name": "amount",
          "type": "uint256"
        }
      ],
      "name": "approve",
      "outputs": [
        {
          "internalType": "bool",
          "name": "",
          "type": "bool"
        }
      ],
      "stateMutability": "nonpayable",
      "type": "function"
    },
    {
      "inputs": [
        {
          "internalType": "address",
          "name": "account",
          "type": "address"
        }
      ],
      "name": "balanceOf",
      "outputs": [
        {
          "internalType": "uint256",
          "name": "",
          "type": "uint256"
        }
      ],
      "stateMutability": "view",
      "type": "function"
    },
    {
      "inputs": [],
      "name": "decimals",
      "outputs": [
        {
          "internalType": "uint8",
          "name": "",
          "type": "uint8"
        }
      ],
      "stateMutability": "view",
      "type": "function"
    },
    {
      "inputs": [
        {
          "internalType": "address",
          "name": "spender",
          "type": "address"
        },
        {
          "internalType": "uint256",
          "name": "subtractedValue",
          "type": "uint256"
        }
      ],
      "name": "decreaseAllowance",
      "outputs": [
        {
          "internalType": "bool",
          "name": "",
          "type": "bool"
        }
      ],
      "stateMutability": "nonpayable",
      "type": "function"
    },
    {
      "inputs": [],
      "name": "getOwner",
      "outputs": [
        {
          "internalType": "address",
          "name": "",
          "type": "address"
        }
      ],
      "stateMutability": "view",
      "type": "function"
    },
    {
      "inputs": [
        {
          "internalType": "address",
          "name": "spender",
          "type": "address"
        },
        {
          "internalType": "uint256",
          "name": "addedValue",
          "type": "uint256"
        }
      ],
      "name": "increaseAllowance",
      "outputs": [
        {
          "internalType": "bool",
          "name": "",
          "type": "bool"
        }
      ],
      "stateMutability": "nonpayable",
      "type": "function"
    },
    {
      "inputs": [],
      "name": "name",
      "outputs": [
        {
          "internalType": "string",
          "name": "",
          "type": "string"
        }
      ],
      "stateMutability": "view",
      "type": "function"
    },
    {
      "inputs": [],
      "name": "owner",
      "outputs": [
        {
          "internalType": "address",
          "name": "",
          "type": "address"
        }
      ],
      "stateMutability": "view",
      "type": "function"
    },
    {
      "inputs": [],
      "name": "renounceOwnership",
      "outputs": [],
      "stateMutability": "nonpayable",
      "type": "function"
    },
    {
      "inputs": [],
      "name": "symbol",
      "outputs": [
        {
          "internalType": "string",
          "name": "",
          "type": "string"
        }
      ],
      "stateMutability": "view",
      "type": "function"
    },
    {
      "inputs": [],
      "name": "totalSupply",
      "outputs": [
        {
          "internalType": "uint256",
          "name": "",
          "type": "uint256"
        }
      ],
      "stateMutability": "view",
      "type": "function"
    },
    {
      "inputs": [
        {
          "internalType": "address",
          "name": "recipient",
          "type": "address"
        },
        {
          "internalType": "uint256",
          "name": "amount",
          "type": "uint256"
        }
      ],
      "name": "transfer",
      "outputs": [
        {
          "internalType": "bool",
          "name": "",
          "type": "bool"
        }
      ],
      "stateMutability": "nonpayable",
      "type": "function"
    },
    {
      "inputs": [
        {
          "internalType": "address",
          "name": "sender",
          "type": "address"
        },
        {
          "internalType": "address",
          "name": "recipient",
          "type": "address"
        },
        {
          "internalType": "uint256",
          "name": "amount",
          "type": "uint256"
        }
      ],
      "name": "transferFrom",
      "outputs": [
        {
          "internalType": "bool",
          "name": "",
          "type": "bool"
        }
      ],
      "stateMutability": "nonpayable",
      "type": "function"
    },
    {
      "inputs": [
        {
          "internalType": "address",
          "name": "newOwner",
          "type": "address"
        }
      ],
      "name": "transferOwnership",
      "outputs": [],
      "stateMutability": "nonpayable",
      "type": "function"
    }
  ],
  "bytecode": "0x60806040523480156200001157600080fd5b5060405162001cf138038062001cf183398181016040528101906200003791906200028b565b620000576200004b6200009160201b60201c565b6200009960201b60201c565b81600490805190602001906200006f9291906200015d565b508060059080519060200190620000889291906200015d565b50505062000494565b600033905090565b60008060009054906101000a900473ffffffffffffffffffffffffffffffffffffffff169050816000806101000a81548173ffffffffffffffffffffffffffffffffffffffff021916908373ffffffffffffffffffffffffffffffffffffffff1602179055508173ffffffffffffffffffffffffffffffffffffffff168173ffffffffffffffffffffffffffffffffffffffff167f8be0079c531659141344cd1fd0a4f28419497f9722a3daafe3b4186f6b6457e060405160405180910390a35050565b8280546200016b90620003a5565b90600052602060002090601f0160209004810192826200018f5760008555620001db565b82601f10620001aa57805160ff1916838001178555620001db565b82800160010185558215620001db579182015b82811115620001da578251825591602001919060010190620001bd565b5b509050620001ea9190620001ee565b5090565b5b8082111562000209576000816000905550600101620001ef565b5090565b6000620002246200021e8462000339565b62000310565b90508281526020810184848401111562000243576200024262000474565b5b620002508482856200036f565b509392505050565b600082601f83011262000270576200026f6200046f565b5b8151620002828482602086016200020d565b91505092915050565b60008060408385031215620002a557620002a46200047e565b5b600083015167ffffffffffffffff811115620002c657620002c562000479565b5b620002d48582860162000258565b925050602083015167ffffffffffffffff811115620002f857620002f762000479565b5b620003068582860162000258565b9150509250929050565b60006200031c6200032f565b90506200032a8282620003db565b919050565b6000604051905090565b600067ffffffffffffffff82111562000357576200035662000440565b5b620003628262000483565b9050602081019050919050565b60005b838110156200038f57808201518184015260208101905062000372565b838111156200039f576000848401525b50505050565b60006002820490506001821680620003be57607f821691505b60208210811415620003d557620003d462000411565b5b50919050565b620003e68262000483565b810181811067ffffffffffffffff8211171562000408576200040762000440565b5b80604052505050565b7f4e487b7100000000000000000000000000000000000000000000000000000000600052602260045260246000fd5b7f4e487b7100000000000000000000000000000000000000000000000000000000600052604160045260246000fd5b600080fd5b600080fd5b600080fd5b600080fd5b6000601f19601f8301169050919050565b61184d80620004a46000396000f3fe608060405234801561001057600080fd5b50600436106100f55760003560e01c8063715018a611610097578063a457c2d711610066578063a457c2d714610278578063a9059cbb146102a8578063dd62ed3e146102d8578063f2fde38b14610308576100f5565b8063715018a614610214578063893d20e81461021e5780638da5cb5b1461023c57806395d89b411461025a576100f5565b806323b872dd116100d357806323b872dd14610166578063313ce5671461019657806339509351146101b457806370a08231146101e4576100f5565b806306fdde03146100fa578063095ea7b31461011857806318160ddd14610148575b600080fd5b610102610324565b60405161010f91906111fc565b60405180910390f35b610132600480360381019061012d9190610fd6565b6103b6565b60405161013f91906111e1565b60405180910390f35b6101506103d4565b60405161015d919061133e565b60405180910390f35b610180600480360381019061017b9190610f83565b6103de565b60405161018d91906111e1565b60405180910390f35b61019e6104df565b6040516101ab9190611359565b60405180910390f35b6101ce60048036038101906101c99190610fd6565b6104f6565b6040516101db91906111e1565b60405180910390f35b6101fe60048036038101906101f99190610f16565b6105a2565b60405161020b919061133e565b60405180910390f35b61021c6105eb565b005b610226610673565b60405161023391906111c6565b60405180910390f35b610244610682565b60405161025191906111c6565b60405180910390f35b6102626106ab565b60405161026f91906111fc565b60405180910390f35b610292600480360381019061028d9190610fd6565b61073d565b60405161029f91906111e1565b60405180910390f35b6102c260048036038101906102bd9190610fd6565b610831565b6040516102cf91906111e1565b60405180910390f35b6102f260048036038101906102ed9190610f43565b61084f565b6040516102ff919061133e565b60405180910390f35b610322600480360381019061031d9190610f16565b6108d6565b005b606060048054610333906114a2565b80601f016020809104026020016040519081016040528092919081815260200182805461035f906114a2565b80156103ac5780601f10610381576101008083540402835291602001916103ac565b820191906000526020600020905b81548152906001019060200180831161038f57829003601f168201915b5050505050905090565b60006103ca6103c36109ce565b84846109d6565b6001905092915050565b6000600354905090565b60006103eb848484610ba1565b6000600260008673ffffffffffffffffffffffffffffffffffffffff1673ffffffffffffffffffffffffffffffffffffffff16815260200190815260200160002060006104366109ce565b73ffffffffffffffffffffffffffffffffffffffff1673ffffffffffffffffffffffffffffffffffffffff168152602001908152602001600020549050828110156104b6576040517f08c379a00000000000000000000000000000000000000000000000000000000081526004016104ad9061127e565b60405180910390fd5b6104d3856104c26109ce565b85846104ce91906113e6565b6109d6565b60019150509392505050565b6000600660009054906101000a900460ff16905090565b60006105986105036109ce565b8484600260006105116109ce565b73ffffffffffffffffffffffffffffffffffffffff1673ffffffffffffffffffffffffffffffffffffffff16815260200190815260200160002060008873ffffffffffffffffffffffffffffffffffffffff1673ffffffffffffffffffffffffffffffffffffffff168152602001908152602001600020546105939190611390565b6109d6565b6001905092915050565b6000600160008373ffffffffffffffffffffffffffffffffffffffff1673ffffffffffffffffffffffffffffffffffffffff168152602001908152602001600020549050919050565b6105f36109ce565b73ffffffffffffffffffffffffffffffffffffffff16610611610682565b73ffffffffffffffffffffffffffffffffffffffff1614610667576040517f08c379a000000000000000000000000000000000000000000000000000000000815260040161065e9061129e565b60405180910390fd5b6106716000610e23565b565b600061067d610682565b905090565b60008060009054906101000a900473ffffffffffffffffffffffffffffffffffffffff16905090565b6060600580546106ba906114a2565b80601f01602080910402602001604051908101604052809291908181526020018280546106e6906114a2565b80156107335780601f1061070857610100808354040283529160200191610733565b820191906000526020600020905b81548152906001019060200180831161071657829003601f168201915b5050505050905090565b6000806002600061074c6109ce565b73ffffffffffffffffffffffffffffffffffffffff1673ffffffffffffffffffffffffffffffffffffffff16815260200190815260200160002060008573ffffffffffffffffffffffffffffffffffffffff1673ffffffffffffffffffffffffffffffffffffffff16815260200190815260200160002054905082811015610809576040517f08c379a0000000000000000000000000000000000000000000000000000000008152600401610800906112fe565b60405180910390fd5b6108266108146109ce565b85858461082191906113e6565b6109d6565b600191505092915050565b600061084561083e6109ce565b8484610ba1565b6001905092915050565b6000600260008473ffffffffffffffffffffffffffffffffffffffff1673ffffffffffffffffffffffffffffffffffffffff16815260200190815260200160002060008373ffffffffffffffffffffffffffffffffffffffff1673ffffffffffffffffffffffffffffffffffffffff16815260200190815260200160002054905092915050565b6108de6109ce565b73ffffffffffffffffffffffffffffffffffffffff166108fc610682565b73ffffffffffffffffffffffffffffffffffffffff1614610952576040517f08c379a00000000000000000000000000000000000000000000000000000000081526004016109499061129e565b60405180910390fd5b600073ffffffffffffffffffffffffffffffffffffffff168173ffffffffffffffffffffffffffffffffffffffff1614156109c2576040517f08c379a00000000000000000000000000000000000000000000000000000000081526004016109b99061125e565b60405180910390fd5b6109cb81610e23565b50565b600033905090565b600073ffffffffffffffffffffffffffffffffffffffff168373ffffffffffffffffffffffffffffffffffffffff161415610a46576040517f08c379a0000000000000000000000000000000000000000000000000000000008152600401610a3d9061123e565b60405180910390fd5b600073ffffffffffffffffffffffffffffffffffffffff168273ffffffffffffffffffffffffffffffffffffffff161415610ab6576040517f08c379a0000000000000000000000000000000000000000000000000000000008152600401610aad9061131e565b60405180910390fd5b80600260008573ffffffffffffffffffffffffffffffffffffffff1673ffffffffffffffffffffffffffffffffffffffff16815260200190815260200160002060008473ffffffffffffffffffffffffffffffffffffffff1673ffffffffffffffffffffffffffffffffffffffff168152602001908152602001600020819055508173ffffffffffffffffffffffffffffffffffffffff168373ffffffffffffffffffffffffffffffffffffffff167f8c5be1e5ebec7d5bd14f71427d1e84f3dd0314c0f7b2291e5b200ac8c7c3b92583604051610b94919061133e565b60405180910390a3505050565b600073ffffffffffffffffffffffffffffffffffffffff168373ffffffffffffffffffffffffffffffffffffffff161415610c11576040517f08c379a0000000000000000000000000000000000000000000000000000000008152600401610c089061121e565b60405180910390fd5b600073ffffffffffffffffffffffffffffffffffffffff168273ffffffffffffffffffffffffffffffffffffffff161415610c81576040517f08c379a0000000000000000000000000000000000000000000000000000000008152600401610c78906112de565b60405180910390fd5b610c8c838383610ee7565b6000600160008573ffffffffffffffffffffffffffffffffffffffff1673ffffffffffffffffffffffffffffffffffffffff16815260200190815260200160002054905081811015610d13576040517f08c379a0000000000000000000000000000000000000000000000000000000008152600401610d0a906112be565b60405180910390fd5b8181610d1f91906113e6565b600160008673ffffffffffffffffffffffffffffffffffffffff1673ffffffffffffffffffffffffffffffffffffffff1681526020019081526020016000208190555081600160008573ffffffffffffffffffffffffffffffffffffffff1673ffffffffffffffffffffffffffffffffffffffff1681526020019081526020016000206000828254610db19190611390565b925050819055508273ffffffffffffffffffffffffffffffffffffffff168473ffffffffffffffffffffffffffffffffffffffff167fddf252ad1be2c89b69c2b068fc378daa952ba7f163c4a11628f55a4df523b3ef84604051610e15919061133e565b60405180910390a350505050565b60008060009054906101000a900473ffffffffffffffffffffffffffffffffffffffff169050816000806101000a81548173ffffffffffffffffffffffffffffffffffffffff021916908373ffffffffffffffffffffffffffffffffffffffff1602179055508173ffffffffffffffffffffffffffffffffffffffff168173ffffffffffffffffffffffffffffffffffffffff167f8be0079c531659141344cd1fd0a4f28419497f9722a3daafe3b4186f6b6457e060405160405180910390a35050565b505050565b600081359050610efb816117e9565b92915050565b600081359050610f1081611800565b92915050565b600060208284031215610f2c57610f2b611532565b5b6000610f3a84828501610eec565b91505092915050565b60008060408385031215610f5a57610f59611532565b5b6000610f6885828601610eec565b9250506020610f7985828601610eec565b9150509250929050565b600080600060608486031215610f9c57610f9b611532565b5b6000610faa86828701610eec565b9350506020610fbb86828701610eec565b9250506040610fcc86828701610f01565b9150509250925092565b60008060408385031215610fed57610fec611532565b5b6000610ffb85828601610eec565b925050602061100c85828601610f01565b9150509250929050565b61101f8161141a565b82525050565b61102e8161142c565b82525050565b600061103f82611374565b611049818561137f565b935061105981856020860161146f565b61106281611537565b840191505092915050565b600061107a60258361137f565b915061108582611548565b604082019050919050565b600061109d60248361137f565b91506110a882611597565b604082019050919050565b60006110c060268361137f565b91506110cb826115e6565b604082019050919050565b60006110e360288361137f565b91506110ee82611635565b604082019050919050565b600061110660208361137f565b915061111182611684565b602082019050919050565b600061112960268361137f565b9150611134826116ad565b604082019050919050565b600061114c60238361137f565b9150611157826116fc565b604082019050919050565b600061116f60258361137f565b915061117a8261174b565b604082019050919050565b600061119260228361137f565b915061119d8261179a565b604082019050919050565b6111b181611458565b82525050565b6111c081611462565b82525050565b60006020820190506111db6000830184611016565b92915050565b60006020820190506111f66000830184611025565b92915050565b600060208201905081810360008301526112168184611034565b905092915050565b600060208201905081810360008301526112378161106d565b9050919050565b6000602082019050818103600083015261125781611090565b9050919050565b60006020820190508181036000830152611277816110b3565b9050919050565b60006020820190508181036000830152611297816110d6565b9050919050565b600060208201905081810360008301526112b7816110f9565b9050919050565b600060208201905081810360008301526112d78161111c565b9050919050565b600060208201905081810360008301526112f78161113f565b9050919050565b6000602082019050818103600083015261131781611162565b9050919050565b6000602082019050818103600083015261133781611185565b9050919050565b600060208201905061135360008301846111a8565b92915050565b600060208201905061136e60008301846111b7565b92915050565b600081519050919050565b600082825260208201905092915050565b600061139b82611458565b91506113a683611458565b9250827fffffffffffffffffffffffffffffffffffffffffffffffffffffffffffffffff038211156113db576113da6114d4565b5b828201905092915050565b60006113f182611458565b91506113fc83611458565b92508282101561140f5761140e6114d4565b5b828203905092915050565b600061142582611438565b9050919050565b60008115159050919050565b600073ffffffffffffffffffffffffffffffffffffffff82169050919050565b6000819050919050565b600060ff82169050919050565b60005b8381101561148d578082015181840152602081019050611472565b8381111561149c576000848401525b50505050565b600060028204905060018216806114ba57607f821691505b602082108114156114ce576114cd611503565b5b50919050565b7f4e487b7100000000000000000000000000000000000000000000000000000000600052601160045260246000fd5b7f4e487b7100000000000000000000000000000000000000000000000000000000600052602260045260246000fd5b600080fd5b6000601f19601f8301169050919050565b7f42455032303a207472616e736665722066726f6d20746865207a65726f20616460008201527f6472657373000000000000000000000000000000000000000000000000000000602082015250565b7f42455032303a20617070726f76652066726f6d20746865207a65726f2061646460008201527f7265737300000000000000000000000000000000000000000000000000000000602082015250565b7f4f776e61626c653a206e6577206f776e657220697320746865207a65726f206160008201527f6464726573730000000000000000000000000000000000000000000000000000602082015250565b7f42455032303a207472616e7366657220616d6f756e742065786365656473206160008201527f6c6c6f77616e6365000000000000000000000000000000000000000000000000602082015250565b7f4f776e61626c653a2063616c6c6572206973206e6f7420746865206f776e6572600082015250565b7f42455032303a207472616e7366657220616d6f756e742065786365656473206260008201527f616c616e63650000000000000000000000000000000000000000000000000000602082015250565b7f42455032303a207472616e7366657220746f20746865207a65726f206164647260008201527f6573730000000000000000000000000000000000000000000000000000000000602082015250565b7f42455032303a2064656372656173656420616c6c6f77616e63652062656c6f7760008201527f207a65726f000000000000000000000000000000000000000000000000000000602082015250565b7f42455032303a20617070726f766520746f20746865207a65726f20616464726560008201527f7373000000000000000000000000000000000000000000000000000000000000602082015250565b6117f28161141a565b81146117fd57600080fd5b50565b61180981611458565b811461181457600080fd5b5056fea2646970667358221220edc79cbfadc565522df3980c051835738f81860f7a8d983865b87f4fcfda8b5264736f6c63430008060033",
  "linkReferences": {},
  "deployedLinkReferences": {}
}