{
  "_format": "hh-sol-artifact-1",
  "contractName": "BEP20SmartContract",
  "sourceName": "contracts/BEP20SmartContract.sol",
  "abi": [
    {
      "inputs": [
        {
          "internalType": "string",
          "name": "name_",
          "type": "string"
        },
        {
          "internalType": "string",
          "name": "symbol_",
          "type": "string"
        },
        {
          "internalType": "uint8",
          "name": "decimals_",
          "type": "uint8"
        },
        {
          "internalType": "uint256",
          "name": "cap_",
          "type": "uint256"
        },
        {
          "internalType": "uint256",
          "name": "initialBalance_",
          "type": "uint256"
        },
        {
          "internalType": "address payable",
          "name": "txnFeeReceiver_",
          "type": "address"
        },
        {
          "internalType": "address payable",
          "name": "brnFeeReceiver_",
          "type": "address"
        }
      ],
      "stateMutability": "payable",
      "type": "constructor"
    },
    {
      "anonymous": false,
      "inputs": [
        {
          "indexed": true,
          "internalType": "address",
          "name": "owner",
          "type": "address"
        },
        {
          "indexed": true,
          "internalType": "address",
          "name": "spender",
          "type": "address"
        },
        {
          "indexed": false,
          "internalType": "uint256",
          "name": "value",
          "type": "uint256"
        }
      ],
      "name": "Approval",
      "type": "event"
    },
    {
      "anonymous": false,
      "inputs": [],
      "name": "MintFinished",
      "type": "event"
    },
    {
      "anonymous": false,
      "inputs": [
        {
          "indexed": true,
          "internalType": "address",
          "name": "previousOwner",
          "type": "address"
        },
        {
          "indexed": true,
          "internalType": "address",
          "name": "newOwner",
          "type": "address"
        }
      ],
      "name": "OwnershipTransferred",
      "type": "event"
    },
    {
      "anonymous": false,
      "inputs": [],
      "name": "Pause",
      "type": "event"
    },
    {
      "anonymous": false,
      "inputs": [
        {
          "indexed": false,
          "internalType": "uint256",
          "name": "value",
          "type": "uint256"
        }
      ],
      "name": "Rewards",
      "type": "event"
    },
    {
      "anonymous": false,
      "inputs": [
        {
          "indexed": true,
          "internalType": "address",
          "name": "from",
          "type": "address"
        },
        {
          "indexed": true,
          "internalType": "address",
          "name": "to",
          "type": "address"
        },
        {
          "indexed": false,
          "internalType": "uint256",
          "name": "value",
          "type": "uint256"
        }
      ],
      "name": "Transfer",
      "type": "event"
    },
    {
      "anonymous": false,
      "inputs": [],
      "name": "Unpause",
      "type": "event"
    },
    {
      "inputs": [
        {
          "internalType": "address",
          "name": "owner",
          "type": "address"
        },
        {
          "internalType": "address",
          "name": "spender",
          "type": "address"
        }
      ],
      "name": "allowance",
      "outputs": [
        {
          "internalType": "uint256",
          "name": "",
          "type": "uint256"
        }
      ],
      "stateMutability": "view",
      "type": "function"
    },
    {
      "inputs": [
        {
          "internalType": "address",
          "name": "spender",
          "type": "address"
        },
        {
          "internalType": "uint256",
          "name": "amount",
          "type": "uint256"
        }
      ],
      "name": "approve",
      "outputs": [
        {
          "internalType": "bool",
          "name": "",
          "type": "bool"
        }
      ],
      "stateMutability": "nonpayable",
      "type": "function"
    },
    {
      "inputs": [
        {
          "internalType": "address",
          "name": "spender",
          "type": "address"
        },
        {
          "internalType": "uint256",
          "name": "amount",
          "type": "uint256"
        }
      ],
      "name": "approveAndCall",
      "outputs": [
        {
          "internalType": "bool",
          "name": "",
          "type": "bool"
        }
      ],
      "stateMutability": "nonpayable",
      "type": "function"
    },
    {
      "inputs": [
        {
          "internalType": "address",
          "name": "spender",
          "type": "address"
        },
        {
          "internalType": "uint256",
          "name": "amount",
          "type": "uint256"
        },
        {
          "internalType": "bytes",
          "name": "data",
          "type": "bytes"
        }
      ],
      "name": "approveAndCall",
      "outputs": [
        {
          "internalType": "bool",
          "name": "",
          "type": "bool"
        }
      ],
      "stateMutability": "nonpayable",
      "type": "function"
    },
    {
      "inputs": [
        {
          "internalType": "address",
          "name": "account",
          "type": "address"
        }
      ],
      "name": "balanceOf",
      "outputs": [
        {
          "internalType": "uint256",
          "name": "",
          "type": "uint256"
        }
      ],
      "stateMutability": "view",
      "type": "function"
    },
    {
      "inputs": [
        {
          "internalType": "uint256",
          "name": "amount",
          "type": "uint256"
        }
      ],
      "name": "burn",
      "outputs": [],
      "stateMutability": "nonpayable",
      "type": "function"
    },
    {
      "inputs": [
        {
          "internalType": "address",
          "name": "account",
          "type": "address"
        },
        {
          "internalType": "uint256",
          "name": "amount",
          "type": "uint256"
        }
      ],
      "name": "burnFrom",
      "outputs": [],
      "stateMutability": "nonpayable",
      "type": "function"
    },
    {
      "inputs": [],
      "name": "cap",
      "outputs": [
        {
          "internalType": "uint256",
          "name": "",
          "type": "uint256"
        }
      ],
      "stateMutability": "view",
      "type": "function"
    },
    {
      "inputs": [],
      "name": "decimals",
      "outputs": [
        {
          "internalType": "uint8",
          "name": "",
          "type": "uint8"
        }
      ],
      "stateMutability": "view",
      "type": "function"
    },
    {
      "inputs": [
        {
          "internalType": "address",
          "name": "spender",
          "type": "address"
        },
        {
          "internalType": "uint256",
          "name": "subtractedValue",
          "type": "uint256"
        }
      ],
      "name": "decreaseAllowance",
      "outputs": [
        {
          "internalType": "bool",
          "name": "",
          "type": "bool"
        }
      ],
      "stateMutability": "nonpayable",
      "type": "function"
    },
    {
      "inputs": [],
      "name": "finishMinting",
      "outputs": [],
      "stateMutability": "nonpayable",
      "type": "function"
    },
    {
      "inputs": [],
      "name": "getBrnFeeReceiverAddress",
      "outputs": [
        {
          "internalType": "address",
          "name": "",
          "type": "address"
        }
      ],
      "stateMutability": "view",
      "type": "function"
    },
    {
      "inputs": [],
      "name": "getOwner",
      "outputs": [
        {
          "internalType": "address",
          "name": "",
          "type": "address"
        }
      ],
      "stateMutability": "view",
      "type": "function"
    },
    {
      "inputs": [],
      "name": "getTxnFeeReceiverAddress",
      "outputs": [
        {
          "internalType": "address",
          "name": "",
          "type": "address"
        }
      ],
      "stateMutability": "view",
      "type": "function"
    },
    {
      "inputs": [
        {
          "internalType": "address",
          "name": "spender",
          "type": "address"
        },
        {
          "internalType": "uint256",
          "name": "addedValue",
          "type": "uint256"
        }
      ],
      "name": "increaseAllowance",
      "outputs": [
        {
          "internalType": "bool",
          "name": "",
          "type": "bool"
        }
      ],
      "stateMutability": "nonpayable",
      "type": "function"
    },
    {
      "inputs": [
        {
          "internalType": "address",
          "name": "account",
          "type": "address"
        },
        {
          "internalType": "uint256",
          "name": "amount",
          "type": "uint256"
        }
      ],
      "name": "mint",
      "outputs": [],
      "stateMutability": "nonpayable",
      "type": "function"
    },
    {
      "inputs": [],
      "name": "mintingFinished",
      "outputs": [
        {
          "internalType": "bool",
          "name": "",
          "type": "bool"
        }
      ],
      "stateMutability": "view",
      "type": "function"
    },
    {
      "inputs": [],
      "name": "name",
      "outputs": [
        {
          "internalType": "string",
          "name": "",
          "type": "string"
        }
      ],
      "stateMutability": "view",
      "type": "function"
    },
    {
      "inputs": [],
      "name": "owner",
      "outputs": [
        {
          "internalType": "address",
          "name": "",
          "type": "address"
        }
      ],
      "stateMutability": "view",
      "type": "function"
    },
    {
      "inputs": [],
      "name": "pause",
      "outputs": [],
      "stateMutability": "nonpayable",
      "type": "function"
    },
    {
      "inputs": [
        {
          "internalType": "address",
          "name": "tokenAddress",
          "type": "address"
        },
        {
          "internalType": "uint256",
          "name": "tokenAmount",
          "type": "uint256"
        }
      ],
      "name": "recoverBEP20",
      "outputs": [],
      "stateMutability": "nonpayable",
      "type": "function"
    },
    {
      "inputs": [],
      "name": "renounceOwnership",
      "outputs": [],
      "stateMutability": "nonpayable",
      "type": "function"
    },
    {
      "inputs": [
        {
          "internalType": "bytes4",
          "name": "interfaceId",
          "type": "bytes4"
        }
      ],
      "name": "supportsInterface",
      "outputs": [
        {
          "internalType": "bool",
          "name": "",
          "type": "bool"
        }
      ],
      "stateMutability": "view",
      "type": "function"
    },
    {
      "inputs": [],
      "name": "symbol",
      "outputs": [
        {
          "internalType": "string",
          "name": "",
          "type": "string"
        }
      ],
      "stateMutability": "view",
      "type": "function"
    },
    {
      "inputs": [],
      "name": "totalSupply",
      "outputs": [
        {
          "internalType": "uint256",
          "name": "",
          "type": "uint256"
        }
      ],
      "stateMutability": "view",
      "type": "function"
    },
    {
      "inputs": [
        {
          "internalType": "address",
          "name": "recipient",
          "type": "address"
        },
        {
          "internalType": "uint256",
          "name": "amount",
          "type": "uint256"
        }
      ],
      "name": "transfer",
      "outputs": [
        {
          "internalType": "bool",
          "name": "",
          "type": "bool"
        }
      ],
      "stateMutability": "nonpayable",
      "type": "function"
    },
    {
      "inputs": [
        {
          "internalType": "address",
          "name": "recipient",
          "type": "address"
        },
        {
          "internalType": "uint256",
          "name": "amount",
          "type": "uint256"
        }
      ],
      "name": "transferAndCall",
      "outputs": [
        {
          "internalType": "bool",
          "name": "",
          "type": "bool"
        }
      ],
      "stateMutability": "nonpayable",
      "type": "function"
    },
    {
      "inputs": [
        {
          "internalType": "address",
          "name": "recipient",
          "type": "address"
        },
        {
          "internalType": "uint256",
          "name": "amount",
          "type": "uint256"
        },
        {
          "internalType": "bytes",
          "name": "data",
          "type": "bytes"
        }
      ],
      "name": "transferAndCall",
      "outputs": [
        {
          "internalType": "bool",
          "name": "",
          "type": "bool"
        }
      ],
      "stateMutability": "nonpayable",
      "type": "function"
    },
    {
      "inputs": [
        {
          "internalType": "address",
          "name": "sender",
          "type": "address"
        },
        {
          "internalType": "address",
          "name": "recipient",
          "type": "address"
        },
        {
          "internalType": "uint256",
          "name": "amount",
          "type": "uint256"
        }
      ],
      "name": "transferFrom",
      "outputs": [
        {
          "internalType": "bool",
          "name": "",
          "type": "bool"
        }
      ],
      "stateMutability": "nonpayable",
      "type": "function"
    },
    {
      "inputs": [
        {
          "internalType": "address",
          "name": "sender",
          "type": "address"
        },
        {
          "internalType": "address",
          "name": "recipient",
          "type": "address"
        },
        {
          "internalType": "uint256",
          "name": "amount",
          "type": "uint256"
        },
        {
          "internalType": "bytes",
          "name": "data",
          "type": "bytes"
        }
      ],
      "name": "transferFromAndCall",
      "outputs": [
        {
          "internalType": "bool",
          "name": "",
          "type": "bool"
        }
      ],
      "stateMutability": "nonpayable",
      "type": "function"
    },
    {
      "inputs": [
        {
          "internalType": "address",
          "name": "sender",
          "type": "address"
        },
        {
          "internalType": "address",
          "name": "recipient",
          "type": "address"
        },
        {
          "internalType": "uint256",
          "name": "amount",
          "type": "uint256"
        }
      ],
      "name": "transferFromAndCall",
      "outputs": [
        {
          "internalType": "bool",
          "name": "",
          "type": "bool"
        }
      ],
      "stateMutability": "nonpayable",
      "type": "function"
    },
    {
      "inputs": [
        {
          "internalType": "address",
          "name": "newOwner",
          "type": "address"
        }
      ],
      "name": "transferOwnership",
      "outputs": [],
      "stateMutability": "nonpayable",
      "type": "function"
    },
    {
      "inputs": [],
      "name": "unpause",
      "outputs": [],
      "stateMutability": "nonpayable",
      "type": "function"
    }
  ],
  "bytecode": "0x60806040526000600860006101000a81548160ff0219169083151502179055506000600860016101000a81548160ff02191690831515021790555060405162004c3738038062004c3783398181016040528101906200005f919062000825565b8082858760ff168a8a620000886200007c620002ea60201b60201c565b620002f260201b60201c565b8160049080519060200190620000a0929190620006b2565b508060059080519060200190620000b9929190620006b2565b5050506000821162000102576040517f08c379a0000000000000000000000000000000000000000000000000000000008152600401620000f99062000abb565b60405180910390fd5b80600a62000111919062000c22565b826200011e919062000db0565b6007819055505050600073ffffffffffffffffffffffffffffffffffffffff168173ffffffffffffffffffffffffffffffffffffffff16141562000199576040517f08c379a0000000000000000000000000000000000000000000000000000000008152600401620001909062000a11565b60405180910390fd5b80600860026101000a81548173ffffffffffffffffffffffffffffffffffffffff021916908373ffffffffffffffffffffffffffffffffffffffff16021790555050600073ffffffffffffffffffffffffffffffffffffffff168173ffffffffffffffffffffffffffffffffffffffff1614156200024e576040517f08c379a0000000000000000000000000000000000000000000000000000000008152600401620002459062000a99565b60405180910390fd5b80600960006101000a81548173ffffffffffffffffffffffffffffffffffffffff021916908373ffffffffffffffffffffffffffffffffffffffff16021790555050620002a185620003b660201b60201c565b620002dd620002b5620002ea60201b60201c565b86600a620002c4919062000c73565b85620002d1919062000db0565b620003d460201b60201c565b505050505050506200114d565b600033905090565b60008060009054906101000a900473ffffffffffffffffffffffffffffffffffffffff169050816000806101000a81548173ffffffffffffffffffffffffffffffffffffffff021916908373ffffffffffffffffffffffffffffffffffffffff1602179055508173ffffffffffffffffffffffffffffffffffffffff168173ffffffffffffffffffffffffffffffffffffffff167f8be0079c531659141344cd1fd0a4f28419497f9722a3daafe3b4186f6b6457e060405160405180910390a35050565b80600660006101000a81548160ff021916908360ff16021790555050565b620003e4620002ea60201b60201c565b73ffffffffffffffffffffffffffffffffffffffff166200040a6200047e60201b60201c565b73ffffffffffffffffffffffffffffffffffffffff161462000463576040517f08c379a00000000000000000000000000000000000000000000000000000000081526004016200045a9062000a55565b60405180910390fd5b6200047a8282620004a760201b620011cf1760201c565b5050565b60008060009054906101000a900473ffffffffffffffffffffffffffffffffffffffff16905090565b620004b76200053360201b60201c565b81620004c86200053d60201b60201c565b620004d4919062000b6a565b111562000518576040517f08c379a00000000000000000000000000000000000000000000000000000000081526004016200050f9062000a77565b60405180910390fd5b6200052f82826200054760201b620012391760201c565b5050565b6000600754905090565b6000600354905090565b600073ffffffffffffffffffffffffffffffffffffffff168273ffffffffffffffffffffffffffffffffffffffff161415620005ba576040517f08c379a0000000000000000000000000000000000000000000000000000000008152600401620005b19062000a33565b60405180910390fd5b620005ce60008383620006ad60201b60201c565b8060036000828254620005e2919062000b6a565b9250508190555080600160008473ffffffffffffffffffffffffffffffffffffffff1673ffffffffffffffffffffffffffffffffffffffff16815260200190815260200160002060008282546200063a919062000b6a565b925050819055508173ffffffffffffffffffffffffffffffffffffffff16600073ffffffffffffffffffffffffffffffffffffffff167fddf252ad1be2c89b69c2b068fc378daa952ba7f163c4a11628f55a4df523b3ef83604051620006a1919062000add565b60405180910390a35050565b505050565b828054620006c09062000e92565b90600052602060002090601f016020900481019282620006e4576000855562000730565b82601f10620006ff57805160ff191683800117855562000730565b8280016001018555821562000730579182015b828111156200072f57825182559160200191906001019062000712565b5b5090506200073f919062000743565b5090565b5b808211156200075e57600081600090555060010162000744565b5090565b600062000779620007738462000b23565b62000afa565b90508281526020810184848401111562000798576200079762000f90565b5b620007a584828562000e5c565b509392505050565b600081519050620007be81620010ff565b92915050565b600082601f830112620007dc57620007db62000f8b565b5b8151620007ee84826020860162000762565b91505092915050565b600081519050620008088162001119565b92915050565b6000815190506200081f8162001133565b92915050565b600080600080600080600060e0888a03121562000847576200084662000f9a565b5b600088015167ffffffffffffffff81111562000868576200086762000f95565b5b620008768a828b01620007c4565b975050602088015167ffffffffffffffff8111156200089a576200089962000f95565b5b620008a88a828b01620007c4565b9650506040620008bb8a828b016200080e565b9550506060620008ce8a828b01620007f7565b9450506080620008e18a828b01620007f7565b93505060a0620008f48a828b01620007ad565b92505060c0620009078a828b01620007ad565b91505092959891949750929550565b60006200092560368362000b59565b9150620009328262000fbd565b604082019050919050565b60006200094c601f8362000b59565b915062000959826200100c565b602082019050919050565b60006200097360208362000b59565b9150620009808262001035565b602082019050919050565b60006200099a60198362000b59565b9150620009a7826200105e565b602082019050919050565b6000620009c160368362000b59565b9150620009ce8262001087565b604082019050919050565b6000620009e860158362000b59565b9150620009f582620010d6565b602082019050919050565b62000a0b8162000e45565b82525050565b6000602082019050818103600083015262000a2c8162000916565b9050919050565b6000602082019050818103600083015262000a4e816200093d565b9050919050565b6000602082019050818103600083015262000a708162000964565b9050919050565b6000602082019050818103600083015262000a92816200098b565b9050919050565b6000602082019050818103600083015262000ab481620009b2565b9050919050565b6000602082019050818103600083015262000ad681620009d9565b9050919050565b600060208201905062000af4600083018462000a00565b92915050565b600062000b0662000b19565b905062000b14828262000ec8565b919050565b6000604051905090565b600067ffffffffffffffff82111562000b415762000b4062000f5c565b5b62000b4c8262000f9f565b9050602081019050919050565b600082825260208201905092915050565b600062000b778262000e45565b915062000b848362000e45565b9250827fffffffffffffffffffffffffffffffffffffffffffffffffffffffffffffffff0382111562000bbc5762000bbb62000efe565b5b828201905092915050565b6000808291508390505b600185111562000c195780860481111562000bf15762000bf062000efe565b5b600185161562000c015780820291505b808102905062000c118562000fb0565b945062000bd1565b94509492505050565b600062000c2f8262000e45565b915062000c3c8362000e45565b925062000c6b7fffffffffffffffffffffffffffffffffffffffffffffffffffffffffffffffff848462000cc4565b905092915050565b600062000c808262000e45565b915062000c8d8362000e4f565b925062000cbc7fffffffffffffffffffffffffffffffffffffffffffffffffffffffffffffffff848462000cc4565b905092915050565b60008262000cd6576001905062000da9565b8162000ce6576000905062000da9565b816001811462000cff576002811462000d0a5762000d40565b600191505062000da9565b60ff84111562000d1f5762000d1e62000efe565b5b8360020a91508482111562000d395762000d3862000efe565b5b5062000da9565b5060208310610133831016604e8410600b841016171562000d7a5782820a90508381111562000d745762000d7362000efe565b5b62000da9565b62000d89848484600162000bc7565b9250905081840481111562000da35762000da262000efe565b5b81810290505b9392505050565b600062000dbd8262000e45565b915062000dca8362000e45565b9250817fffffffffffffffffffffffffffffffffffffffffffffffffffffffffffffffff048311821515161562000e065762000e0562000efe565b5b828202905092915050565b600062000e1e8262000e25565b9050919050565b600073ffffffffffffffffffffffffffffffffffffffff82169050919050565b6000819050919050565b600060ff82169050919050565b60005b8381101562000e7c57808201518184015260208101905062000e5f565b8381111562000e8c576000848401525b50505050565b6000600282049050600182168062000eab57607f821691505b6020821081141562000ec25762000ec162000f2d565b5b50919050565b62000ed38262000f9f565b810181811067ffffffffffffffff8211171562000ef55762000ef462000f5c565b5b80604052505050565b7f4e487b7100000000000000000000000000000000000000000000000000000000600052601160045260246000fd5b7f4e487b7100000000000000000000000000000000000000000000000000000000600052602260045260246000fd5b7f4e487b7100000000000000000000000000000000000000000000000000000000600052604160045260246000fd5b600080fd5b600080fd5b600080fd5b600080fd5b6000601f19601f8301169050919050565b60008160011c9050919050565b7f424550323054786e4665655265636569766572416464726573733a2074786e4660008201527f6565526563656976657241646472657373206973203000000000000000000000602082015250565b7f42455032303a206d696e7420746f20746865207a65726f206164647265737300600082015250565b7f4f776e61626c653a2063616c6c6572206973206e6f7420746865206f776e6572600082015250565b7f42455032304361707065643a2063617020657863656564656400000000000000600082015250565b7f424550323042726e4665655265636569766572416464726573733a2062726e4660008201527f6565526563656976657241646472657373206973203000000000000000000000602082015250565b7f42455032304361707065643a2063617020697320300000000000000000000000600082015250565b6200110a8162000e11565b81146200111657600080fd5b50565b620011248162000e45565b81146200113057600080fd5b50565b6200113e8162000e4f565b81146200114a57600080fd5b50565b613ada806200115d6000396000f3fe608060405234801561001057600080fd5b50600436106101fb5760003560e01c8063715018a61161011a578063a457c2d7116100ad578063cae9ca511161007c578063cae9ca51146105b8578063d8fbe994146105e8578063dd62ed3e14610618578063efa0880614610648578063f2fde38b14610664576101fb565b8063a457c2d71461050a578063a9059cbb1461053a578063b56675181461056a578063c1d34b8914610588576101fb565b80638456cb59116100e95780638456cb59146104a6578063893d20e8146104b05780638da5cb5b146104ce57806395d89b41146104ec576101fb565b8063715018a61461045857806379cc6790146104625780637a8a44c51461047e5780637d64bcb41461049c576101fb565b80633177029f116101925780634000aea0116101615780634000aea0146103c057806340c10f19146103f057806342966c681461040c57806370a0823114610428576101fb565b80633177029f14610338578063355274ea1461036857806339509351146103865780633f4ba83a146103b6576101fb565b80631296ee62116101ce5780631296ee621461029c57806318160ddd146102cc57806323b872dd146102ea578063313ce5671461031a576101fb565b806301ffc9a71461020057806305d2035b1461023057806306fdde031461024e578063095ea7b31461026c575b600080fd5b61021a6004803603810190610215919061297e565b610680565b6040516102279190612e3d565b60405180910390f35b6102386106fa565b6040516102459190612e3d565b60405180910390f35b610256610711565b6040516102639190612e58565b60405180910390f35b610286600480360381019061028191906128a2565b6107a3565b6040516102939190612e3d565b60405180910390f35b6102b660048036038101906102b191906128a2565b6107b7565b6040516102c39190612e3d565b60405180910390f35b6102d46107db565b6040516102e191906130fa565b60405180910390f35b61030460048036038101906102ff91906127cc565b6107e5565b6040516103119190612e3d565b60405180910390f35b6103226107fb565b60405161032f9190613115565b60405180910390f35b610352600480360381019061034d91906128a2565b610812565b60405161035f9190612e3d565b60405180910390f35b610370610836565b60405161037d91906130fa565b60405180910390f35b6103a0600480360381019061039b91906128a2565b610840565b6040516103ad9190612e3d565b60405180910390f35b6103be610854565b005b6103da60048036038101906103d591906128e2565b610968565b6040516103e79190612e3d565b60405180910390f35b61040a600480360381019061040591906128a2565b6109d2565b005b610426600480360381019061042191906129d8565b610a30565b005b610442600480360381019061043d919061275f565b610a44565b60405161044f91906130fa565b60405180910390f35b610460610a8d565b005b61047c600480360381019061047791906128a2565b610b15565b005b610486610b99565b6040516104939190612d6f565b60405180910390f35b6104a4610bc3565b005b6104ae610c1d565b005b6104b8610d32565b6040516104c59190612d6f565b60405180910390f35b6104d6610d41565b6040516104e39190612d6f565b60405180910390f35b6104f4610d6a565b6040516105019190612e58565b60405180910390f35b610524600480360381019061051f91906128a2565b610dfc565b6040516105319190612e3d565b60405180910390f35b610554600480360381019061054f91906128a2565b610e10565b6040516105619190612e3d565b60405180910390f35b610572610e24565b60405161057f9190612d6f565b60405180910390f35b6105a2600480360381019061059d919061281f565b610e4e565b6040516105af9190612e3d565b60405180910390f35b6105d260048036038101906105cd91906128e2565b610eb3565b6040516105df9190612e3d565b60405180910390f35b61060260048036038101906105fd91906127cc565b610f15565b60405161060f9190612e3d565b60405180910390f35b610632600480360381019061062d919061278c565b610f3b565b60405161063f91906130fa565b60405180910390f35b610662600480360381019061065d91906128a2565b610fc2565b005b61067e6004803603810190610679919061275f565b6110d7565b005b60007fb0202a11000000000000000000000000000000000000000000000000000000007bffffffffffffffffffffffffffffffffffffffffffffffffffffffff1916827bffffffffffffffffffffffffffffffffffffffffffffffffffffffff191614806106f357506106f28261138e565b5b9050919050565b6000600860009054906101000a900460ff16905090565b60606004805461072090613396565b80601f016020809104026020016040519081016040528092919081815260200182805461074c90613396565b80156107995780601f1061076e57610100808354040283529160200191610799565b820191906000526020600020905b81548152906001019060200180831161077c57829003601f168201915b5050505050905090565b60006107af83836113f8565b905092915050565b60006107d3838360405180602001604052806000815250610968565b905092915050565b6000600354905090565b60006107f284848461145c565b90509392505050565b6000600660009054906101000a900460ff16905090565b600061082e838360405180602001604052806000815250610eb3565b905092915050565b6000600754905090565b600061084c83836114c2565b905092915050565b61085c611526565b73ffffffffffffffffffffffffffffffffffffffff1661087a610d41565b73ffffffffffffffffffffffffffffffffffffffff16146108d0576040517f08c379a00000000000000000000000000000000000000000000000000000000081526004016108c790612fda565b60405180910390fd5b600860019054906101000a900460ff1661091f576040517f08c379a000000000000000000000000000000000000000000000000000000000815260040161091690612e7a565b60405180910390fd5b6000600860016101000a81548160ff0219169083151502179055507f7805862f689e2f13df9f062ff482ad3ad112aca9e0847911ed832e158c525b3360405160405180910390a1565b60006109748484610e10565b50610988610980611526565b85858561152e565b6109c7576040517f08c379a00000000000000000000000000000000000000000000000000000000081526004016109be90612f3a565b60405180910390fd5b600190509392505050565b600860009054906101000a900460ff1615610a22576040517f08c379a0000000000000000000000000000000000000000000000000000000008152600401610a1990612f1a565b60405180910390fd5b610a2c828261164c565b5050565b610a41610a3b611526565b826116d6565b50565b6000600160008373ffffffffffffffffffffffffffffffffffffffff1673ffffffffffffffffffffffffffffffffffffffff168152602001908152602001600020549050919050565b610a95611526565b73ffffffffffffffffffffffffffffffffffffffff16610ab3610d41565b73ffffffffffffffffffffffffffffffffffffffff1614610b09576040517f08c379a0000000000000000000000000000000000000000000000000000000008152600401610b0090612fda565b60405180910390fd5b610b1360006118ac565b565b6000610b2883610b23611526565b610f3b565b905081811015610b6d576040517f08c379a0000000000000000000000000000000000000000000000000000000008152600401610b64906130ba565b60405180910390fd5b610b8a83610b79611526565b8484610b85919061329f565b611970565b610b9483836116d6565b505050565b6000600860029054906101000a900473ffffffffffffffffffffffffffffffffffffffff16905090565b600860009054906101000a900460ff1615610c13576040517f08c379a0000000000000000000000000000000000000000000000000000000008152600401610c0a90612f1a565b60405180910390fd5b610c1b611b3b565b565b610c25611526565b73ffffffffffffffffffffffffffffffffffffffff16610c43610d41565b73ffffffffffffffffffffffffffffffffffffffff1614610c99576040517f08c379a0000000000000000000000000000000000000000000000000000000008152600401610c9090612fda565b60405180910390fd5b600860019054906101000a900460ff1615610ce9576040517f08c379a0000000000000000000000000000000000000000000000000000000008152600401610ce090612f7a565b60405180910390fd5b6001600860016101000a81548160ff0219169083151502179055507f6985a02210a168e66602d3235cb6db0e70f92b3ba4d376a33c0f3d9434bff62560405160405180910390a1565b6000610d3c610d41565b905090565b60008060009054906101000a900473ffffffffffffffffffffffffffffffffffffffff16905090565b606060058054610d7990613396565b80601f0160208091040260200160405190810160405280929190818152602001828054610da590613396565b8015610df25780601f10610dc757610100808354040283529160200191610df2565b820191906000526020600020905b815481529060010190602001808311610dd557829003601f168201915b5050505050905090565b6000610e088383611bc1565b905092915050565b6000610e1c8383611c25565b905092915050565b6000600960009054906101000a900473ffffffffffffffffffffffffffffffffffffffff16905090565b6000610e5b8585856107e5565b50610e688585858561152e565b610ea7576040517f08c379a0000000000000000000000000000000000000000000000000000000008152600401610e9e90612f3a565b60405180910390fd5b60019050949350505050565b6000610ebf84846107a3565b50610ecb848484611c89565b610f0a576040517f08c379a0000000000000000000000000000000000000000000000000000000008152600401610f0190612eba565b60405180910390fd5b600190509392505050565b6000610f3284848460405180602001604052806000815250610e4e565b90509392505050565b6000600260008473ffffffffffffffffffffffffffffffffffffffff1673ffffffffffffffffffffffffffffffffffffffff16815260200190815260200160002060008373ffffffffffffffffffffffffffffffffffffffff1673ffffffffffffffffffffffffffffffffffffffff16815260200190815260200160002054905092915050565b610fca611526565b73ffffffffffffffffffffffffffffffffffffffff16610fe8610d41565b73ffffffffffffffffffffffffffffffffffffffff161461103e576040517f08c379a000000000000000000000000000000000000000000000000000000000815260040161103590612fda565b60405180910390fd5b8173ffffffffffffffffffffffffffffffffffffffff1663a9059cbb611062610d41565b836040518363ffffffff1660e01b8152600401611080929190612dd6565b602060405180830381600087803b15801561109a57600080fd5b505af11580156110ae573d6000803e3d6000fd5b505050506040513d601f19601f820116820180604052508101906110d29190612951565b505050565b6110df611526565b73ffffffffffffffffffffffffffffffffffffffff166110fd610d41565b73ffffffffffffffffffffffffffffffffffffffff1614611153576040517f08c379a000000000000000000000000000000000000000000000000000000000815260040161114a90612fda565b60405180910390fd5b600073ffffffffffffffffffffffffffffffffffffffff168173ffffffffffffffffffffffffffffffffffffffff1614156111c3576040517f08c379a00000000000000000000000000000000000000000000000000000000081526004016111ba90612efa565b60405180910390fd5b6111cc816118ac565b50565b6111d7610836565b816111e06107db565b6111ea91906131be565b111561122b576040517f08c379a00000000000000000000000000000000000000000000000000000000081526004016112229061307a565b60405180910390fd5b6112358282611239565b5050565b600073ffffffffffffffffffffffffffffffffffffffff168273ffffffffffffffffffffffffffffffffffffffff1614156112a9576040517f08c379a00000000000000000000000000000000000000000000000000000000081526004016112a090612fba565b60405180910390fd5b6112b560008383611da4565b80600360008282546112c791906131be565b9250508190555080600160008473ffffffffffffffffffffffffffffffffffffffff1673ffffffffffffffffffffffffffffffffffffffff168152602001908152602001600020600082825461131d91906131be565b925050819055508173ffffffffffffffffffffffffffffffffffffffff16600073ffffffffffffffffffffffffffffffffffffffff167fddf252ad1be2c89b69c2b068fc378daa952ba7f163c4a11628f55a4df523b3ef8360405161138291906130fa565b60405180910390a35050565b60007f01ffc9a7000000000000000000000000000000000000000000000000000000007bffffffffffffffffffffffffffffffffffffffffffffffffffffffff1916827bffffffffffffffffffffffffffffffffffffffffffffffffffffffff1916149050919050565b6000600860019054906101000a900460ff161561144a576040517f08c379a000000000000000000000000000000000000000000000000000000000815260040161144190612f7a565b60405180910390fd5b6114548383611da9565b905092915050565b6000600860019054906101000a900460ff16156114ae576040517f08c379a00000000000000000000000000000000000000000000000000000000081526004016114a590612f7a565b60405180910390fd5b6114b9848484611dc7565b90509392505050565b6000600860019054906101000a900460ff1615611514576040517f08c379a000000000000000000000000000000000000000000000000000000000815260040161150b90612f7a565b60405180910390fd5b61151e8383611ec8565b905092915050565b600033905090565b600061154f8473ffffffffffffffffffffffffffffffffffffffff16611f74565b61155c5760009050611644565b60008473ffffffffffffffffffffffffffffffffffffffff166388a7ca5c611582611526565b8887876040518563ffffffff1660e01b81526004016115a49493929190612d8a565b602060405180830381600087803b1580156115be57600080fd5b505af11580156115d2573d6000803e3d6000fd5b505050506040513d601f19601f820116820180604052508101906115f691906129ab565b90506388a7ca5c60e01b7bffffffffffffffffffffffffffffffffffffffffffffffffffffffff1916817bffffffffffffffffffffffffffffffffffffffffffffffffffffffff1916149150505b949350505050565b611654611526565b73ffffffffffffffffffffffffffffffffffffffff16611672610d41565b73ffffffffffffffffffffffffffffffffffffffff16146116c8576040517f08c379a00000000000000000000000000000000000000000000000000000000081526004016116bf90612fda565b60405180910390fd5b6116d282826111cf565b5050565b600073ffffffffffffffffffffffffffffffffffffffff168273ffffffffffffffffffffffffffffffffffffffff161415611746576040517f08c379a000000000000000000000000000000000000000000000000000000000815260040161173d9061305a565b60405180910390fd5b61175282600083611da4565b6000600160008473ffffffffffffffffffffffffffffffffffffffff1673ffffffffffffffffffffffffffffffffffffffff168152602001908152602001600020549050818110156117d9576040517f08c379a00000000000000000000000000000000000000000000000000000000081526004016117d09061309a565b60405180910390fd5b81816117e5919061329f565b600160008573ffffffffffffffffffffffffffffffffffffffff1673ffffffffffffffffffffffffffffffffffffffff16815260200190815260200160002081905550816003600082825461183a919061329f565b92505081905550600073ffffffffffffffffffffffffffffffffffffffff168373ffffffffffffffffffffffffffffffffffffffff167fddf252ad1be2c89b69c2b068fc378daa952ba7f163c4a11628f55a4df523b3ef8460405161189f91906130fa565b60405180910390a3505050565b60008060009054906101000a900473ffffffffffffffffffffffffffffffffffffffff169050816000806101000a81548173ffffffffffffffffffffffffffffffffffffffff021916908373ffffffffffffffffffffffffffffffffffffffff1602179055508173ffffffffffffffffffffffffffffffffffffffff168173ffffffffffffffffffffffffffffffffffffffff167f8be0079c531659141344cd1fd0a4f28419497f9722a3daafe3b4186f6b6457e060405160405180910390a35050565b600073ffffffffffffffffffffffffffffffffffffffff168373ffffffffffffffffffffffffffffffffffffffff1614156119e0576040517f08c379a00000000000000000000000000000000000000000000000000000000081526004016119d790612eda565b60405180910390fd5b600073ffffffffffffffffffffffffffffffffffffffff168273ffffffffffffffffffffffffffffffffffffffff161415611a50576040517f08c379a0000000000000000000000000000000000000000000000000000000008152600401611a47906130da565b60405180910390fd5b80600260008573ffffffffffffffffffffffffffffffffffffffff1673ffffffffffffffffffffffffffffffffffffffff16815260200190815260200160002060008473ffffffffffffffffffffffffffffffffffffffff1673ffffffffffffffffffffffffffffffffffffffff168152602001908152602001600020819055508173ffffffffffffffffffffffffffffffffffffffff168373ffffffffffffffffffffffffffffffffffffffff167f8c5be1e5ebec7d5bd14f71427d1e84f3dd0314c0f7b2291e5b200ac8c7c3b92583604051611b2e91906130fa565b60405180910390a3505050565b611b43611526565b73ffffffffffffffffffffffffffffffffffffffff16611b61610d41565b73ffffffffffffffffffffffffffffffffffffffff1614611bb7576040517f08c379a0000000000000000000000000000000000000000000000000000000008152600401611bae90612fda565b60405180910390fd5b611bbf611f87565b565b6000600860019054906101000a900460ff1615611c13576040517f08c379a0000000000000000000000000000000000000000000000000000000008152600401611c0a90612f7a565b60405180910390fd5b611c1d8383611fd0565b905092915050565b6000600860019054906101000a900460ff1615611c77576040517f08c379a0000000000000000000000000000000000000000000000000000000008152600401611c6e90612f7a565b60405180910390fd5b611c8183836120c4565b905092915050565b6000611caa8473ffffffffffffffffffffffffffffffffffffffff16611f74565b611cb75760009050611d9d565b60008473ffffffffffffffffffffffffffffffffffffffff16637b04a2d0611cdd611526565b86866040518463ffffffff1660e01b8152600401611cfd93929190612dff565b602060405180830381600087803b158015611d1757600080fd5b505af1158015611d2b573d6000803e3d6000fd5b505050506040513d601f19601f82011682018060405250810190611d4f91906129ab565b9050637b04a2d060e01b7bffffffffffffffffffffffffffffffffffffffffffffffffffffffff1916817bffffffffffffffffffffffffffffffffffffffffffffffffffffffff1916149150505b9392505050565b505050565b6000611dbd611db6611526565b8484611970565b6001905092915050565b6000611dd48484846120e2565b6000600260008673ffffffffffffffffffffffffffffffffffffffff1673ffffffffffffffffffffffffffffffffffffffff1681526020019081526020016000206000611e1f611526565b73ffffffffffffffffffffffffffffffffffffffff1673ffffffffffffffffffffffffffffffffffffffff16815260200190815260200160002054905082811015611e9f576040517f08c379a0000000000000000000000000000000000000000000000000000000008152600401611e9690612f5a565b60405180910390fd5b611ebc85611eab611526565b8584611eb7919061329f565b611970565b60019150509392505050565b6000611f6a611ed5611526565b848460026000611ee3611526565b73ffffffffffffffffffffffffffffffffffffffff1673ffffffffffffffffffffffffffffffffffffffff16815260200190815260200160002060008873ffffffffffffffffffffffffffffffffffffffff1673ffffffffffffffffffffffffffffffffffffffff16815260200190815260200160002054611f6591906131be565b611970565b6001905092915050565b600080823b905060008111915050919050565b6001600860006101000a81548160ff0219169083151502179055507fae5184fba832cb2b1f702aca6117b8d265eaf03ad33eb133f19dde0f5920fa0860405160405180910390a1565b60008060026000611fdf611526565b73ffffffffffffffffffffffffffffffffffffffff1673ffffffffffffffffffffffffffffffffffffffff16815260200190815260200160002060008573ffffffffffffffffffffffffffffffffffffffff1673ffffffffffffffffffffffffffffffffffffffff1681526020019081526020016000205490508281101561209c576040517f08c379a00000000000000000000000000000000000000000000000000000000081526004016120939061303a565b60405180910390fd5b6120b96120a7611526565b8585846120b4919061329f565b611970565b600191505092915050565b60006120d86120d1611526565b84846120e2565b6001905092915050565b6120ed8383836120f2565b505050565b600073ffffffffffffffffffffffffffffffffffffffff168373ffffffffffffffffffffffffffffffffffffffff161415612162576040517f08c379a000000000000000000000000000000000000000000000000000000000815260040161215990612e9a565b60405180910390fd5b600073ffffffffffffffffffffffffffffffffffffffff168273ffffffffffffffffffffffffffffffffffffffff1614156121d2576040517f08c379a00000000000000000000000000000000000000000000000000000000081526004016121c99061301a565b60405180910390fd5b6121dd838383611da4565b6000600160008573ffffffffffffffffffffffffffffffffffffffff1673ffffffffffffffffffffffffffffffffffffffff16815260200190815260200160002054905081811015612264576040517f08c379a000000000000000000000000000000000000000000000000000000000815260040161225b90612ffa565b60405180910390fd5b61227782826125dd90919063ffffffff16565b600160008673ffffffffffffffffffffffffffffffffffffffff1673ffffffffffffffffffffffffffffffffffffffff1681526020019081526020016000208190555060006122c4610b99565b905060006122d0610e24565b90506000620186a06004866122e59190613245565b6122ef9190613214565b90506000620186a06005876123049190613245565b61230e9190613214565b90506000620186a0876123219190613214565b9050600061234a8261233c85876125f390919063ffffffff16565b6125f390919063ffffffff16565b905061235f81896125dd90919063ffffffff16565b5087600160008b73ffffffffffffffffffffffffffffffffffffffff1673ffffffffffffffffffffffffffffffffffffffff16815260200190815260200160002060008282546123af91906131be565b9250508190555083600160008773ffffffffffffffffffffffffffffffffffffffff1673ffffffffffffffffffffffffffffffffffffffff168152602001908152602001600020600082825461240591906131be565b9250508190555081600160008873ffffffffffffffffffffffffffffffffffffffff1673ffffffffffffffffffffffffffffffffffffffff168152602001908152602001600020600082825461245b91906131be565b9250508190555061246b83612609565b8873ffffffffffffffffffffffffffffffffffffffff168a73ffffffffffffffffffffffffffffffffffffffff167fddf252ad1be2c89b69c2b068fc378daa952ba7f163c4a11628f55a4df523b3ef8a6040516124c891906130fa565b60405180910390a38473ffffffffffffffffffffffffffffffffffffffff168a73ffffffffffffffffffffffffffffffffffffffff167fddf252ad1be2c89b69c2b068fc378daa952ba7f163c4a11628f55a4df523b3ef8660405161252d91906130fa565b60405180910390a38573ffffffffffffffffffffffffffffffffffffffff168a73ffffffffffffffffffffffffffffffffffffffff167fddf252ad1be2c89b69c2b068fc378daa952ba7f163c4a11628f55a4df523b3ef8460405161259291906130fa565b60405180910390a37ff8738c258eacbb175b764334c95a51c4e5efc89acca8058bb23d95de4f1c09ee836040516125c991906130fa565b60405180910390a150505050505050505050565b600081836125eb919061329f565b905092915050565b6000818361260191906131be565b905092915050565b6000811161264c576040517f08c379a000000000000000000000000000000000000000000000000000000000815260040161264390612f9a565b60405180910390fd5b7ff8738c258eacbb175b764334c95a51c4e5efc89acca8058bb23d95de4f1c09ee8160405161267b91906130fa565b60405180910390a150565b600061269961269484613155565b613130565b9050828152602081018484840111156126b5576126b46134ba565b5b6126c0848285613354565b509392505050565b6000813590506126d781613a48565b92915050565b6000815190506126ec81613a5f565b92915050565b60008135905061270181613a76565b92915050565b60008151905061271681613a76565b92915050565b600082601f830112612731576127306134b5565b5b8135612741848260208601612686565b91505092915050565b60008135905061275981613a8d565b92915050565b600060208284031215612775576127746134c4565b5b6000612783848285016126c8565b91505092915050565b600080604083850312156127a3576127a26134c4565b5b60006127b1858286016126c8565b92505060206127c2858286016126c8565b9150509250929050565b6000806000606084860312156127e5576127e46134c4565b5b60006127f3868287016126c8565b9350506020612804868287016126c8565b92505060406128158682870161274a565b9150509250925092565b60008060008060808587031215612839576128386134c4565b5b6000612847878288016126c8565b9450506020612858878288016126c8565b93505060406128698782880161274a565b925050606085013567ffffffffffffffff81111561288a576128896134bf565b5b6128968782880161271c565b91505092959194509250565b600080604083850312156128b9576128b86134c4565b5b60006128c7858286016126c8565b92505060206128d88582860161274a565b9150509250929050565b6000806000606084860312156128fb576128fa6134c4565b5b6000612909868287016126c8565b935050602061291a8682870161274a565b925050604084013567ffffffffffffffff81111561293b5761293a6134bf565b5b6129478682870161271c565b9150509250925092565b600060208284031215612967576129666134c4565b5b6000612975848285016126dd565b91505092915050565b600060208284031215612994576129936134c4565b5b60006129a2848285016126f2565b91505092915050565b6000602082840312156129c1576129c06134c4565b5b60006129cf84828501612707565b91505092915050565b6000602082840312156129ee576129ed6134c4565b5b60006129fc8482850161274a565b91505092915050565b612a0e816132d3565b82525050565b612a1d816132e5565b82525050565b6000612a2e82613186565b612a38818561319c565b9350612a48818560208601613363565b612a51816134c9565b840191505092915050565b6000612a6782613191565b612a7181856131ad565b9350612a81818560208601613363565b612a8a816134c9565b840191505092915050565b6000612aa26014836131ad565b9150612aad826134da565b602082019050919050565b6000612ac56025836131ad565b9150612ad082613503565b604082019050919050565b6000612ae8602b836131ad565b9150612af382613552565b604082019050919050565b6000612b0b6024836131ad565b9150612b16826135a1565b604082019050919050565b6000612b2e6026836131ad565b9150612b39826135f0565b604082019050919050565b6000612b516022836131ad565b9150612b5c8261363f565b604082019050919050565b6000612b74602c836131ad565b9150612b7f8261368e565b604082019050919050565b6000612b976028836131ad565b9150612ba2826136dd565b604082019050919050565b6000612bba6010836131ad565b9150612bc58261372c565b602082019050919050565b6000612bdd602f836131ad565b9150612be882613755565b604082019050919050565b6000612c00601f836131ad565b9150612c0b826137a4565b602082019050919050565b6000612c236020836131ad565b9150612c2e826137cd565b602082019050919050565b6000612c466026836131ad565b9150612c51826137f6565b604082019050919050565b6000612c696023836131ad565b9150612c7482613845565b604082019050919050565b6000612c8c6025836131ad565b9150612c9782613894565b604082019050919050565b6000612caf6021836131ad565b9150612cba826138e3565b604082019050919050565b6000612cd26019836131ad565b9150612cdd82613932565b602082019050919050565b6000612cf56022836131ad565b9150612d008261395b565b604082019050919050565b6000612d186024836131ad565b9150612d23826139aa565b604082019050919050565b6000612d3b6022836131ad565b9150612d46826139f9565b604082019050919050565b612d5a8161333d565b82525050565b612d6981613347565b82525050565b6000602082019050612d846000830184612a05565b92915050565b6000608082019050612d9f6000830187612a05565b612dac6020830186612a05565b612db96040830185612d51565b8181036060830152612dcb8184612a23565b905095945050505050565b6000604082019050612deb6000830185612a05565b612df86020830184612d51565b9392505050565b6000606082019050612e146000830186612a05565b612e216020830185612d51565b8181036040830152612e338184612a23565b9050949350505050565b6000602082019050612e526000830184612a14565b92915050565b60006020820190508181036000830152612e728184612a5c565b905092915050565b60006020820190508181036000830152612e9381612a95565b9050919050565b60006020820190508181036000830152612eb381612ab8565b9050919050565b60006020820190508181036000830152612ed381612adb565b9050919050565b60006020820190508181036000830152612ef381612afe565b9050919050565b60006020820190508181036000830152612f1381612b21565b9050919050565b60006020820190508181036000830152612f3381612b44565b9050919050565b60006020820190508181036000830152612f5381612b67565b9050919050565b60006020820190508181036000830152612f7381612b8a565b9050919050565b60006020820190508181036000830152612f9381612bad565b9050919050565b60006020820190508181036000830152612fb381612bd0565b9050919050565b60006020820190508181036000830152612fd381612bf3565b9050919050565b60006020820190508181036000830152612ff381612c16565b9050919050565b6000602082019050818103600083015261301381612c39565b9050919050565b6000602082019050818103600083015261303381612c5c565b9050919050565b6000602082019050818103600083015261305381612c7f565b9050919050565b6000602082019050818103600083015261307381612ca2565b9050919050565b6000602082019050818103600083015261309381612cc5565b9050919050565b600060208201905081810360008301526130b381612ce8565b9050919050565b600060208201905081810360008301526130d381612d0b565b9050919050565b600060208201905081810360008301526130f381612d2e565b9050919050565b600060208201905061310f6000830184612d51565b92915050565b600060208201905061312a6000830184612d60565b92915050565b600061313a61314b565b905061314682826133c8565b919050565b6000604051905090565b600067ffffffffffffffff8211156131705761316f613486565b5b613179826134c9565b9050602081019050919050565b600081519050919050565b600081519050919050565b600082825260208201905092915050565b600082825260208201905092915050565b60006131c98261333d565b91506131d48361333d565b9250827fffffffffffffffffffffffffffffffffffffffffffffffffffffffffffffffff03821115613209576132086133f9565b5b828201905092915050565b600061321f8261333d565b915061322a8361333d565b92508261323a57613239613428565b5b828204905092915050565b60006132508261333d565b915061325b8361333d565b9250817fffffffffffffffffffffffffffffffffffffffffffffffffffffffffffffffff0483118215151615613294576132936133f9565b5b828202905092915050565b60006132aa8261333d565b91506132b58361333d565b9250828210156132c8576132c76133f9565b5b828203905092915050565b60006132de8261331d565b9050919050565b60008115159050919050565b60007fffffffff0000000000000000000000000000000000000000000000000000000082169050919050565b600073ffffffffffffffffffffffffffffffffffffffff82169050919050565b6000819050919050565b600060ff82169050919050565b82818337600083830152505050565b60005b83811015613381578082015181840152602081019050613366565b83811115613390576000848401525b50505050565b600060028204905060018216806133ae57607f821691505b602082108114156133c2576133c1613457565b5b50919050565b6133d1826134c9565b810181811067ffffffffffffffff821117156133f0576133ef613486565b5b80604052505050565b7f4e487b7100000000000000000000000000000000000000000000000000000000600052601160045260246000fd5b7f4e487b7100000000000000000000000000000000000000000000000000000000600052601260045260246000fd5b7f4e487b7100000000000000000000000000000000000000000000000000000000600052602260045260246000fd5b7f4e487b7100000000000000000000000000000000000000000000000000000000600052604160045260246000fd5b600080fd5b600080fd5b600080fd5b600080fd5b6000601f19601f8301169050919050565b7f5061757361626c653a206e6f7420706175736564000000000000000000000000600082015250565b7f42455032303a207472616e736665722066726f6d20746865207a65726f20616460008201527f6472657373000000000000000000000000000000000000000000000000000000602082015250565b7f42455032304f70657261626c653a205f636865636b416e6443616c6c4170707260008201527f6f76652072657665727473000000000000000000000000000000000000000000602082015250565b7f42455032303a20617070726f76652066726f6d20746865207a65726f2061646460008201527f7265737300000000000000000000000000000000000000000000000000000000602082015250565b7f4f776e61626c653a206e6577206f776e657220697320746865207a65726f206160008201527f6464726573730000000000000000000000000000000000000000000000000000602082015250565b7f42455032304d696e7461626c653a206d696e74696e672069732066696e69736860008201527f6564000000000000000000000000000000000000000000000000000000000000602082015250565b7f42455032304f70657261626c653a205f636865636b416e6443616c6c5472616e60008201527f7366657220726576657274730000000000000000000000000000000000000000602082015250565b7f42455032303a207472616e7366657220616d6f756e742065786365656473206160008201527f6c6c6f77616e6365000000000000000000000000000000000000000000000000602082015250565b7f5061757361626c653a2070617573656400000000000000000000000000000000600082015250565b7f42455032303a207265776172647320616d6f756e74206d75737420626520677260008201527f6561746572207468616e207a65726f0000000000000000000000000000000000602082015250565b7f42455032303a206d696e7420746f20746865207a65726f206164647265737300600082015250565b7f4f776e61626c653a2063616c6c6572206973206e6f7420746865206f776e6572600082015250565b7f42455032303a207472616e7366657220616d6f756e742065786365656473206260008201527f616c616e63650000000000000000000000000000000000000000000000000000602082015250565b7f42455032303a207472616e7366657220746f20746865207a65726f206164647260008201527f6573730000000000000000000000000000000000000000000000000000000000602082015250565b7f42455032303a2064656372656173656420616c6c6f77616e63652062656c6f7760008201527f207a65726f000000000000000000000000000000000000000000000000000000602082015250565b7f42455032303a206275726e2066726f6d20746865207a65726f2061646472657360008201527f7300000000000000000000000000000000000000000000000000000000000000602082015250565b7f42455032304361707065643a2063617020657863656564656400000000000000600082015250565b7f42455032303a206275726e20616d6f756e7420657863656564732062616c616e60008201527f6365000000000000000000000000000000000000000000000000000000000000602082015250565b7f42455032303a206275726e20616d6f756e74206578636565647320616c6c6f7760008201527f616e636500000000000000000000000000000000000000000000000000000000602082015250565b7f42455032303a20617070726f766520746f20746865207a65726f20616464726560008201527f7373000000000000000000000000000000000000000000000000000000000000602082015250565b613a51816132d3565b8114613a5c57600080fd5b50565b613a68816132e5565b8114613a7357600080fd5b50565b613a7f816132f1565b8114613a8a57600080fd5b50565b613a968161333d565b8114613aa157600080fd5b5056fea26469706673582212200bbc97b50f97c1fc6efeb1dcbedac0947dc835c063ed708200ced8759150e97864736f6c63430008060033",
  "linkReferences": {},
  "deployedLinkReferences": {}
}